:020000040800F2
:10000000601800202D310008C1020008C30200085A
:10001000C7020008CB020008CF0200080000000061
:10002000000000000000000000000000890100083E
:10003000D302000800000000CD0100088F3800083E
:1000400047310008473100084731000847310008B0
:1000500047310008473100084731000845060008CD
:100060004731000847310008473100084731000890
:100070004731000847310008473100084731000880
:100080004731000847310008473100084731000870
:100090004731000847310008473100084731000860
:1000A0004731000847310008473100084731000850
:1000B0002D1100085B110008473100084731000886
:1000C0004731000847310008473100084731000830
:1000D00047310008B30B00084731000847310008DA
:1000E00047310008473100084731000800F002F8A6
:1000F00000F03AF80AA090E8000C82448344AAF188
:100100000107DA4501D100F02FF8AFF2090EBAE885
:100110000F0013F0010F18BFFB1A43F0010318473B
:100120002C6600004C660000103A24BF78C878C1E5
:10013000FAD8520724BF30C830C144BF04680C60ED
:10014000704700000023002400250026103A28BF35
:1001500078C1FBD8520728BF30C148BF0B60704739
:100160001FB51FBD10B510BD06F0BEFA1146FFF752
:10017000F7FF00F055F806F0DCFA03B4FFF7F2FFE2
:1001800003BC00F0BBFC0000224B19680868B0E813
:10019000F00F80F30988BFF36F8F4FF0000080F3FA
:1001A00011884EF00D0E70470000000006480068F0
:1001B000006880F3088862B661B6BFF34F8FBFF363
:1001C0006F8F00DF00BF00BF08ED00E0EFF3098094
:1001D000BFF36F8F0F4B1A6820E9F00F106008B55E
:1001E0004FF0A00080F31188BFF34F8FBFF36F8FE4
:1001F00005F015F84FF0000080F31188BDE80840C5
:1002000019680868B0E8F00F80F30988BFF36F8FB2
:10021000704700BF70000020EFF3058070470000BA
:100220001CB500BF00BF0A2400208DF800008DF827
:10023000010015208DF8020002208DF803000E2029
:100240008DF8040008208DF8050012208DF80600B6
:1002500000F018FC00F01CFC00F086F9482000F0CB
:10026000BBFB4FF4E13000F058FC00F0E7FC00F07D
:10027000A8F8684600F099FB00F092FE62B600F024
:10028000C5FE012000F0B9F916E00C48008808B955
:1002900000F028FF09480088844208D007480488F5
:1002A00004F10A00C2B2E1B2C02000F057F868467B
:1002B00000F063FB00F006FAE7E7000018000020FA
:1002C000704700BFFEE700BFFEE700BFFEE700BFCC
:1002D000FEE770472DE9F04707460C4690464FEA87
:1002E000A40A2046E11704EB91718910A4EB810167
:1002F00001F0FF090025002607F00F0000EBD07188
:100300004D102046E11704EB9171C1F38706934825
:1003100000EB8500805D4FEA49020321914088434C
:100320008E4901EB850188558C4800EB8500805D86
:100330004FEA490108FA01F10843884901EB8501B8
:1003400088550AF11400C3B2844800EB8500825D31
:100350003946012000F0B4FCBDE8F0872DE9F041FA
:1003600005460C4617464FF000080F2C02DD4FF0F3
:1003700001080CE0A01CC6B233463A4629460120CB
:1003800000F09EFC022221462846FFF7A3FF4046CC
:10039000BDE8F08110B50446012C0CD10020704955
:1003A0000860012000F04EFB01206E49C1F8880171
:1003B00000F048FB04E001206949086000F026FBDA
:1003C00010BD10B50020FFF7E5FF00231A46C0213D
:1003D000012000F075FC04230122C021104600F02A
:1003E0006FFC00231A46C221012000F069FC04239F
:1003F0000122C221104600F063FC00231A46C421EA
:10040000012000F05DFC04230122C421104600F00D
:1004100057FC00231A46C621012000F051FC04239A
:100420000122C621104600F04BFC052000F0EEFA38
:10043000002419E0A01CC2B22146C020FFF78EFFA5
:10044000601CC2B22146C220FFF788FF601CC2B206
:100450002146C420FFF782FF601CC2B22146C6209D
:10046000FFF77CFF601CC4B2102CE3DB10BD2DE94C
:10047000F04781460E4614461F464FF0000814B957
:100480004FF001081CE0102C02DD4FF0010817E0CE
:10049000A019102802DD4FF0010811E000250CE042
:1004A0007A5D7019C1B24846FFF758FF8046B8F12F
:1004B000000F00D003E0681CC5B2A542F0DB00BF0E
:1004C0004046BDE8F0872DE9F04107460E46144648
:1004D0004FF0000814B94FF0010816E0102C02DDAF
:1004E0004FF0010811E0A019102802DD4FF00108BB
:1004F0000BE0002507E07019C1B201223846FFF772
:10050000E9FE681CC5B2A542F5DB4046BDE8F081B6
:100510002DE9F04107460E4614464FF0000814B985
:100520004FF0010816E0102C02DD4FF0010811E039
:10053000A019102802DD4FF001080BE0002507E0AC
:100540007019C1B200223846FFF7C4FE681CC5B25C
:10055000A542F5DB4046BDE8F0810000C000002068
:10056000888121420080214200B589B00121042008
:1005700001F073FC0121092001F062FC4FF480704E
:10058000ADF8200018208DF8230003208DF82200FC
:1005900008A9214800F096FF4FF46170ADF81800EB
:1005A0000020ADF81400ADF81A00ADF8160005A94A
:1005B0001A4801F07DFD7020ADF804000120ADF86F
:1005C00006000020ADF80A00ADF80C0001A91348A0
:1005D00001F0EDFD0821114802F0FFF901210F485B
:1005E00002F0C2F947F6FF710C4802F059FB0021F6
:1005F0000A4802F0B9F809B000BD10B50446012C54
:1006000004D10121054802F0AFF803E000210348BE
:1006100002F0AAF810BD0000000C014000080040E4
:1006200010B5002408E0601CC4B2142000F00AFADF
:10063000FA2C01D1204610BD324800680028F2D1C2
:100640002046F8E770B500240025002634E02D4848
:100650000068002830D0FFF7E3FF0446FA2C00D1F1
:100660002BE0C82C03DBFA2C01DA012517E0552C0E
:100670000ADBC82C08DA01202349087023480078D7
:10068000401C2249087018E0322C03DB552C01DA9B
:10069000012604E00A2C02DB322C00DA00265DB1D0
:1006A0001B48006840001A4908600846006830444A
:1006B0000860002015490870C9E700BF022000F05B
:1006C00098FE70BD12480068010E11480068C0F322
:1006D000074200200C4B1870D043C0B288420FD1A3
:1006E00071B90B480088C0F3072109480278D0434C
:1006F000C0B2884204D10020054B186008467047FC
:100700000020FCE704012142050000200400002035
:100710000000002008B54FF40050ADF80000102094
:100720008DF8030003208DF802006946A74800F009
:10073000C9FE08BD08B54FF40050ADF800004820D0
:100740008DF803006946A14800F0BCFE08BD70B5F5
:100750000446FFF7DFFF00209D49086000251EE0EA
:10076000322000F06FF904F0010020B10120984917
:10077000091D086003E000209549091D086032202A
:1007800000F060F9012092490860322000F05AF927
:1007900000209049C1F8B0016410681CC5B2082D52
:1007A000DEDB70BD70B5FFF7C5FF0024002088496F
:1007B0000860322000F046F9002516E064108448F5
:1007C0007C380068012801D144F08004322000F018
:1007D00039F901207E490860322000F033F9002009
:1007E0007C49C1F8B001681CC5B2082DE6DB204683
:1007F000E11704EB1171C1F30716E11704EB117156
:100800000911A4EB0111CCB206EB860004EB400009
:10081000C4B2204670BD70B505460C4600206C4938
:1008200008310860322000F00DF900206949C1F854
:10083000B001322000F006F9012065490831086056
:10084000322000F0FFF82846FFF781FF2046FFF72F
:100850007EFF322000F0F6F801205E49C1F8B001B9
:10086000322000F0EFF8002059490831086070BDCF
:1008700070B504460020564908310860322000F067
:10088000E1F800205349C1F8B001322000F0DAF855
:1008900001204F4908310860322000F0D3F820468B
:1008A000FFF755FFFFF77EFF0546322000F0CAF83C
:1008B00001204849C1F8B001322000F0C3F80020FF
:1008C000434908310860284670BD70B505460024CC
:1008D00000203F4908310860322000F0B3F80020C2
:1008E0003C49C1F8B001322000F0ACF80120384991
:1008F00008310860322000F0A5F8BF20FFF727FF7D
:1009000000BF03E0FFF74EFF2855641C072CF9DBFE
:10091000322000F097F801202D490860322000F0C5
:1009200091F800202B49C1F8B80170BD10B50446FC
:1009300000218E20FFF76FFFA1798C20FFF76BFF5E
:1009400061798820FFF767FF21798620FFF763FF31
:10095000E1788A20FFF75FFFA1788420FFF75BFF33
:1009600061788220FFF757FF21788020FFF753FF3F
:1009700080218E20FFF74FFF10BD1CB5044668464E
:10098000FFF7A3FF9DF80600A0719DF805006071B8
:100990009DF8040020719DF80200A0709DF80100F0
:1009A00060709DF8000020701CBD31B56C460021C0
:1009B0008E20FFF730FF642000F044F82068FFF736
:1009C000B5FF80218E20FFF726FF38BD000C0140C7
:1009D000B08121420080214210B504466FF004002E
:1009E00000F063FCE11704EB5171C1F3C701234A26
:1009F00011701046007800EB4001C1EBC0104FF6BB
:100A0000FF7101EAC0001E49088010BD01461C4A62
:100A100012884A434FF0E0235A6100229A61012272
:100A20001A6100BF4FF0E022106900F001021AB114
:100A300000F48032002AF5D000224FF0E0231A6142
:100A40009A61704701460D4A12784A434FF0E023FD
:100A50005A6100229A6101221A6100BF4FF0E02220
:100A6000106900F001021AB100F48032002AF5D0BA
:100A700000224FF0E0231A619A61704706000020BF
:100A80000800002010B54FF4407000F0BFFB10BD0F
:100A900008B50121042001F0D3F90121082001F05B
:100AA000CFF90121102001F0CBF90121084601F016
:100AB000C7F910208DF803000120ADF800000320D5
:100AC0008DF8020069460A4800F0FCFC10208DF801
:100AD000030045F20400ADF8000003208DF8020089
:100AE0006946044800F0EEFC01200349086008BD97
:100AF00000080140000C014080012142014600BF76
:100B0000704700BF494A128802F04002002AF9D01B
:100B1000C2B2464B1B1D1A80704710B586B0044602
:100B2000012144F2050001F08BF94FF40070ADF89B
:100B3000140003208DF8160018208DF8170005A961
:100B40003B4800F0BFFC4FF48060ADF81400042077
:100B50008DF8170005A9364800F0B4FC25208DF863
:100B6000000003208DF801008DF8020001208DF8AF
:100B70000300684600F04FFB01940020ADF8080028
:100B8000ADF80A00ADF80C00ADF810000C20ADF87F
:100B90000E0001A9254802F008F9012240F2255172
:100BA000224802F09AF90121204802F08AF906B0A1
:100BB00010BD10B540F225511C4802F073FA10B375
:100BC0001A4802F0EFF9C4B21A48007800F0800029
:100BD000C8B91848007800F0400060B10A2C03D072
:100BE00000201449087020E01248007840F080008E
:100BF0001049087019E00D2C06D10E48007840F01D
:100C000040000C49087010E00A48007800F03F00EE
:100C100009490C5407480078401C064908700846EA
:100C200000783F2801DD0020087010BD0038014029
:100C30000008014010000020D000002000B585B061
:100C40000121082001F0FCF80121480501F005F917
:100C50000121880501F001F94FF44C60ADF8100056
:100C600003208DF812001C208DF8130004A9C6483B
:100C700000F028FC4CF2503000900020ADF8040049
:100C80004BF6FF70ADF80600B020ADF808004FF449
:100C90008060ADF80A000001ADF80C006946BB4861
:100CA00000F077FD6946BA4800F073FD0121B748AE
:100CB00000F0EDFD0121B64800F0E9FD05B000BDF2
:100CC0002DE9F04104460F4615461E46012C33D14E
:100CD0000121AF4800F0FFFD00BFAE49AC4800F075
:100CE000DBFE0028F9D000223946A94800F049FE71
:100CF00000BFA949A64800F0CFFE0028F9D0314630
:100D0000A34800F038FE00BFA349891EA04800F0A8
:100D1000C3FE0028F8D029469D4800F02CFE00BFF5
:100D20009D49891C9A4800F0B7FE0028F8D001219F
:100D3000974800F0DCFD32E00121944800F0CBFD43
:100D400000BF9449914800F0A7FE0028F9D0002286
:100D500039468E4800F015FE00BF8F498B4800F0E1
:100D60009BFE0028F9D03146884800F004FE00BF01
:100D70008949891E854800F08FFE0028F8D0294651
:100D8000824800F0F8FD00BF8349891C7F4800F0CD
:100D900083FE0028F8D001217C4800F0A8FDBDE8C2
:100DA000F08138B504460D46012C1DD1002000907D
:100DB00000BF0121764800F08EFD1421744800F038
:100DC000E9FD009000222946714800F0DAFD142167
:100DD0006F4800F0DFFD00F002000028E9D06F4905
:100DE0006B4800F098FE1DE00020009000BF01213C
:100DF000664800F070FD1421644800F0CBFD0090BF
:100E000000222946614800F0BCFD14215F4800F033
:100E1000C1FD00F002000028E9D060495B4800F005
:100E20007AFE00BF38BD2DE9F04105460F46144655
:100E30001E46012D53D10121554800F04CFD00BF45
:100E40005449534800F028FE0028F9D000223946C2
:100E50004F4800F096FD00BF4F494D4800F01CFE82
:100E60000028F9D031464A4800F085FD00BF4A49C4
:100E7000891C474800F010FE0028F8D001214448A2
:100E800000F029FD00BF4349414800F005FE00285D
:100E9000F9D0012239463E4800F073FD00BF3D49BC
:100EA000491C3B4800F0F8FD0028F8D0384800887D
:100EB0004FF6FF310840364908800846008840F068
:100EC0002000088000BF33493F31314800F0E4FD85
:100ED0000028F8D02E4810300088207052E0012100
:100EE0002A4800F0F8FC00BF2A49284800F0D4FD49
:100EF0000028F9D000223946244800F042FD00BF06
:100F00002549224800F0C8FD0028F9D031461F4885
:100F100000F031FD00BF2049891C1C4800F0BCFDD9
:100F20000028F8D00121194800F0D5FC00BF19496C
:100F3000164800F0B1FD0028F9D0012239461348C7
:100F400000F01FFD00BF1349491C104800F0A4FD2C
:100F50000028F8D00D4800884FF6FF3108400B49B3
:100F600008800846008840F02000088000BF09493A
:100F70003F31064800F090FD0028F8D003481030BB
:100F800000882070BDE8F081000C01400054004052
:100F90000058004001000300820007000004001018
:100FA0001FB50121052000F04BFF0220ADF80C0019
:100FB00048208DF80F0003208DF80E0003A9124879
:100FC00000F080FA0121002000F092FB0220019045
:100FD00000208DF808000C208DF8090001208DF804
:100FE0000A0001A800F08EF907208DF80000022009
:100FF0008DF801008DF8020001208DF8030068468D
:1010000000F009F91FBD00000008014000B587B0DD
:101010000121084600F021FF41F28830ADF81400AC
:1010200041F61F40ADF810000020ADF81600ADF8F5
:10103000120004A94FF0804001F03AF8012241214A
:10104000880701F0ACFB1C208DF80C0000208DF807
:101050000D0003208DF80E0001208DF80F0003A86D
:1010600000F0D9F800214FF0804001F07DFB012114
:10107000022000F0F2FE0121092000F0E1FE012132
:10108000594800F0F0FA594800F03EFF0420ADF84E
:1010900000000020ADF802000120ADF8040000209F
:1010A000ADF80600ADF808006946504801F093FA23
:1010B0001D208DF80C0000208DF80D0004208DF807
:1010C0000E0001208DF80F0003A800F0A4F8012104
:1010D000464801F049FB01220421444801F05FFB2E
:1010E00007B000BD0EB500214FF0804001F03CFB81
:1010F0003F4800683F490968B0FBF1F0B421B0FBFC
:10110000F1F080B2ADF804000120ADF8000000203D
:10111000ADF80600ADF8020069464FF0804000F0DF
:10112000C7FF0121880701F01FFB0EBD10B501218B
:10113000880701F0E2FD78B12F480088401C2E4955
:10114000088008460088B0F5B47F01D100200880EF
:101150000121880701F0E2FD10BD10B504212348EC
:1011600001F0CBFD01283DD10421204801F0D6FD3E
:101170002248007840B91D4801F0A3FD20490880AD
:1011800001201E4908702DE01C480078012829D153
:10119000164801F096FD1B4908800846008818494A
:1011A0000988884207DD1748008815490988401AD0
:1011B0001549088009E0124800884FF6FF71081AA7
:1011C00010490988084410490880094800680E49F8
:1011D0000988B0FBF1F00749086000200749087052
:1011E0000549088010BD000000081A0000040040F6
:1011F00038000020140000201800002020000020EB
:101200001C0000201E0000201A000020314901436C
:10121000314A1160704770B5002100230F22C47855
:1012200004B32D4C246804F4E064C4F5E064210A9E
:10123000C1F10403CA40447804FA03F184781440ED
:1012400021430901254C0678A155047804F01F05B7
:101250000124AC4005786D11AD0005F1E025C5F81D
:10126000004109E0047804F01F050124AC401C4D46
:101270000678761145F8264070BD1A4A0A400243A6
:10128000154B1B1F1A60704739B1134A121D1268A3
:101290000243114B1B1D1A6006E00F4A121D126813
:1012A00082430D4B1B1D1A607047042808D14FF074
:1012B000E021096941F004014FF0E022116107E0EB
:1012C0004FF0E021096921F004014FF0E0221161A3
:1012D000704700000000FA050CED00E000E400E0BB
:1012E00080E100E080FFFF1F002044490860091DE5
:1012F0000860091D0860091D086041483F49143114
:101300000860704700213D498279002A3AD00A4698
:10131000126803689A430B461A600A1D1268036834
:101320009A430B1D1A60027911440A6803681A4334
:101330000A60324A0832126803689A432F4B083316
:101340001A601A1D126803689A432C4B0C331A60FA
:101350004279102A0ED11A1F126803681A43274BCC
:1013600008331A601A1D126803681A43234B0C33A2
:101370001A600DE02149427911440A6803681A4352
:101380000A6005E0027911440A6803689A430A601A
:1013900070470021016001710C21417100218171B0
:1013A00070471649103109680143144A1032116020
:1013B000704701460020114A143212680A400AB1EF
:1013C000012000E0002070470C491431086070478C
:1013D000014600200022094B1B6803EA0102074B6B
:1013E00014331B680B4013B10AB1012000E0002048
:1013F0007047024914310860704700000004014042
:10140000FFFF0F0010B50446CC48844208D10121EB
:10141000042000F02FFD0021042000F02BFD46E009
:10142000C748844208D10121082000F023FD002193
:10143000082000F01FFD3AE0C248844208D1012193
:10144000102000F017FD0021102000F013FD2EE009
:10145000BD48844208D10121202000F00BFD00216D
:10146000202000F007FD22E0B848844208D1012185
:10147000402000F0FFFC0021402000F0FBFC16E0C3
:10148000B348844208D10121802000F0F3FC002100
:10149000802000F0EFFC0AE0AE48844207D1012131
:1014A000801500F0E7FC0021A01500F0E3FC10BD62
:1014B00010B50121084600F0DDFC0021012000F0FC
:1014C000D9FC10BD2DE9F041024600250026002080
:1014D00000230024002791F803C00CF00F0591F8B9
:1014E00003C00CF0100CBCF1000F03D091F802C047
:1014F0004CEA050591F800C0BCF1000F31D014682A
:1015000000202BE04FF0010C0CFA00F3B1F800C002
:101510000CEA03069E4220D183004FF00F0C0CFA18
:1015200003F7BC4305FA03FC4CEA040491F803C03A
:10153000BCF1280F06D14FF0010C0CFA00FCC2F8E8
:1015400014C00AE091F803C0BCF1480F05D14FF078
:10155000010C0CFA00FCC2F810C0401C0828D1D3C2
:101560001460B1F800C0BCF1FF0F34DD54680020F6
:101570002EE000F1080C4FF0010808FA0CF3B1F866
:1015800000C00CEA03069E4221D183004FF00F0CED
:101590000CFA03F7BC4305FA03FC4CEA040491F887
:1015A00003C0BCF1280F05D100F1080C08FA0CF8B3
:1015B000C2F8148091F803C0BCF1480F07D100F1C4
:1015C000080C4FF0010808FA0CF8C2F81080401C13
:1015D0000828CED35460BDE8F0814FF6FF7101803A
:1015E000022181700421C170704702460020936877
:1015F0000B400BB1012000E00020704701468868D5
:1016000080B2704702460020D3680B400BB1012026
:1016100000E0002070470146C86880B27047016151
:101620007047416170470AB1016100E04161704754
:10163000C16070474FF480320A43826181618261E8
:1016400082698269704702460020434B18684FF652
:101650008073184040EA021008433F4B18607047FF
:101660003E49C8617047F0B50A46002300240021B6
:10167000002500F00046B6F1004F02D1364EF16968
:1016800001E0354E7168C0F3034583B200F44016A3
:10169000B6F5401F08D121F070612F4E766826F014
:1016A00070662D4F7E6012E000F48016B6F5801F44
:1016B00006D1032606FA05F4A14341F0706106E065
:1016C000460D360103FA06F6B14341F0706122B1CE
:1016D000460D360103FA06F6314300F00046B6F136
:1016E000004F02D11C4EF16101E01B4E7160F0BD54
:1016F00030B500228B071C0F0F2303FA04F2164BA0
:1017000008338C1053F824309343134C08348D1055
:1017100044F8253023468C1053F824308C07240FCE
:1017200000FA04F423430C4C08348D1044F825309F
:1017300030BD0A49DC3108607047000000080140F4
:10174000000C01400010014000140140001801404D
:10175000001C014000200140000001400000204228
:1017600010B50446F748844209D10121480500F02C
:101770008EFB00214FF4001000F089FB08E00121EE
:10178000880500F084FB00214FF4800000F07FFB0F
:1017900010BD2DE9F04385B004460D460026B14644
:1017A0000427DFF8A483A6884FF6C0700640684679
:1017B00000F0D9FADDF80880E448B8FBF0F01FFA31
:1017C00080F946EA0906A68020884FF6FE71084097
:1017D00020800026DE49286888420CD8286840000E
:1017E000B8FBF0F087B2042F00DA04273E4309F17A
:1017F0000100208427E0E8884BF6FF71884206D17B
:10180000286800EB4000B8FBF0F087B209E02868D8
:1018100000EBC00101EB0010B8FBF0F087B247F419
:101820008047C7F30B0008B947F0010747F40040B1
:1018300006434FF4967009FB00F04FF47A7190FB69
:10184000F1F0401C2084A683208840F00100208015
:1018500026884FF6F5300640A88869890843064374
:101860002680A88929890843208105B0BDE8F08336
:1018700041F288310160002181804BF6FF71C18007
:101880000021018141814FF480418181704721B164
:10189000028842F00102028004E002884FF6FE73E3
:1018A0001A400280704721B1828842F4006282802F
:1018B00004E082884FF2FF731A408280704721B1A2
:1018C000828842F48052828004E082884EF6FF7360
:1018D0001A408280704721B1028842F480720280EF
:1018E00004E002884FF6FF631A400280704721B17E
:1018F000028842F40072028004E002884FF6FF532F
:101900001A400280704721B1028842F4806202804E
:1019100004E002884FF6FF331A40028070470A46FF
:10192000002181894FF60173194002F0FE0319432B
:101930008181704721B1828942F00102828104E0F5
:1019400082894FF6FE731A408281704721B1028866
:1019500042F04002028004E002884FF6BF731A4052
:10196000028070471AB183880B43838002E083882A
:101970008B4383807047018270470146088AC0B25A
:10198000704712B141F0010102E04FF6FE731940B9
:101990000182704708B5024600200090009200982E
:1019A000084400900098008808BD21B1028842F4E4
:1019B0000042028003E00288C2F30E0202807047F8
:1019C000B1F5006F04D1028842F40062028004E0A5
:1019D00002884FF2FF731A4002807047B1F5005F32
:1019E00004D1028842F40052028004E002884DF6DD
:1019F000FF731A400280704721B1028842F480527E
:101A0000028004E002884EF6FF731A40028070479D
:101A1000B1F5006F04D1028842F40062028004E054
:101A200002884FF2FF731A400280704721B102888A
:101A300042F02002028004E002884FF6DF731A4071
:101A4000028070470146088B0012704721B102885E
:101A500042F01002028004E002884FF6EF731A4051
:101A60000280704721B9028842F08002028004E0BF
:101A700002884FF67F731A4002807047B1F5804F9D
:101A800005D0828B4BF6FF731A40828303E0828B72
:101A900042F480428283704770B5024600240025DC
:101AA00000230020958A138B1B0445EA030626F0C9
:101AB0007F4404EA01068E4201D1012000E00020AB
:101AC00070BD10B501460020002300228B8A0A8BCE
:101AD000120443EA020424F07F4010BD0CB5024614
:101AE000002000230193009300920B0F019321F03B
:101AF0007F41019B1BB1009B1433009303E0090C51
:101B0000009B18330093009B1B680B400BB1012016
:101B100000E000200CBD002221F07F42D3438382ED
:101B2000704730B5024600200023948801F0E0653C
:101B300004EA154321F07F41948A0C4054B14BB123
:101B4000012008E00054004000127A0040420F00DB
:101B5000A0860100002030BD002221F07F42D34347
:101B600083827047DF48006840F00100DD4908606B
:101B700008464068DC490840DA4948600846006881
:101B8000DA490840D74908600846006820F48020F8
:101B900008600846406820F4FE0048604FF41F00CB
:101BA00088607047CF49096821F48031CD4A1160BF
:101BB0001146096821F480211160B0F5803F03D0FF
:101BC000B0F5802F0ED106E0C649096841F4803196
:101BD000C44A116007E0C349096841F4A021C14A21
:101BE000116000E000BF00BF704710B50146002241
:101BF000002300204A11012A02D1BA4C236806E0D2
:101C0000022A02D1B74C236A01E0B64C636A01F0A4
:101C10001F02012494401C400CB1012000E0002070
:101C200010BD38B5002000900024002500BF3120F1
:101C3000FFF7DBFF05460098401C00900098B0F5C8
:101C4000A06F01D0002DF2D03120FFF7CEFF08B1F8
:101C5000012400E00024204638BD01460020A14AAE
:101C6000106820F0F80040EAC10010607047A049F9
:101C700008607047024600209A4B586820F47C1098
:101C800042EA01031843974B586070479849086629
:101C9000704701460020934A506820F00300084333
:101CA000506070478F48406800F00C007047014654
:101CB00000208C4A506820F0F000084350607047C4
:101CC00001460020874A506820F4E06008435060D5
:101CD000704701460020834A506820F4605040EA73
:101CE000C1005060704729B17E4A527A02437D4B51
:101CF0005A7204E07B4A527A82437A4B5A72704796
:101D00007B49D8310860704701460020754A506809
:101D100020F440400843506070470021714A20324F
:101D20001170704A82F82010012802D004280AD1CC
:101D300004E001216B4A2032117005E00521694A57
:101D40002032117000E000BF00BF70476949086091
:101D500070476449096A0143624A116270476549E4
:101D600044390860704730B5002100220024002368
:101D70005C4D6D6805F00C0121B1042905D00829DE
:101D800023D105E05C4D056022E05B4D05601FE05E
:101D9000544D6D6805F47012524D6D6805F4803431
:101DA000022505EB92421CB9544D554305600BE0EA
:101DB0004C4D6D6805F400351DB1504D554305601F
:101DC00002E04D4D5543056002E04B4D056000BFFC
:101DD00000BF444D6D6805F0F0010909484D6B5C8A
:101DE0000568DD4045603F4D6D6805F4E061090A16
:101DF000434D6B5C4568DD4085603A4D6D6805F488
:101E00006051C90A3E4D6B5C4568DD40C560354D8B
:101E10006D6805F44041890B3A4D6B5CC568B5FBB4
:101E2000F3F5056130BD29B12E4A526902432D4BAD
:101E30005A6104E02B4A526982432A4B5A61704727
:101E400029B1284A92690243264B9A6104E0254A47
:101E500092698243234B9A61704729B1214AD26922
:101E60000243204BDA6104E01E4AD26982431D4BD3
:101E7000DA61704729B11B4AD2680243194BDA6014
:101E800004E0184AD2688243164BDA60704729B1E1
:101E9000144A12690243134B1A6104E0114A126991
:101EA0008243104B1A6170471249403908607047ED
:101EB0000F49C86470470B49C87170470948406AA8
:101EC00040F0807007494862704701460020054A8B
:101ED00092680A400AB1012000E0002070470149E1
:101EE00088727047001002400000FFF8FFFFF6FE06
:101EF000000042428004424200127A0000093D0084
:101F0000210000203100002010B50446FE48844224
:101F100008D10121C014FFF7ADFF0021E014FFF745
:101F2000A9FFC4E0B4F1804F08D101210846FFF7B2
:101F3000AEFF00210120FFF7AAFFB8E0F34884427A
:101F400008D101210220FFF7A2FF00210220FFF7A4
:101F50009EFFACE0EE48844208D101210420FFF747
:101F600096FF00210420FFF792FFA0E0E948844299
:101F700008D101210820FFF78AFF00210820FFF780
:101F800086FF94E0E448844208D101211020FFF745
:101F90007EFF00211020FFF77AFF88E0DF488442AF
:101FA00008D101212020FFF772FF00212020FFF738
:101FB0006EFF7CE0DA48844208D101214014FFF72B
:101FC00059FF00216014FFF755FF70E0D5488442A7
:101FD00009D10121C804FFF74DFF00214FF4002073
:101FE000FFF748FF63E0D048844209D1012108058A
:101FF000FFF740FF00214FF48010FFF73BFF56E052
:10200000CA48844209D101214805FFF733FF002166
:102010004FF40010FFF72EFF49E0C548844208D175
:1020200001214020FFF733FF00214020FFF72FFF61
:102030003DE0C048844208D101218020FFF727FFFE
:1020400000218020FFF723FF31E0BB48844208D104
:1020500001218015FFF71BFF0021A015FFF717FFD7
:1020600025E0B648844209D101210804FFF702FFA8
:1020700000214FF48030FFF7FDFE18E0B0488442A5
:1020800009D101214804FFF7F5FE00214FF400308B
:10209000FFF7F0FE0BE0AB48844208D10121880431
:1020A000FFF7E8FE00214FF48020FFF7E3FE10BDAC
:1020B00000220288944B98420ED0994B98420BD044
:1020C000B0F1804F08D0914B984205D0904B984288
:1020D00002D0904B984204D14FF68F731A404B8830
:1020E0001A438D4B984207D08C4B984204D04FF640
:1020F000FF431A40CB881A4302808B8883850B8864
:102100000385814B98420BD0854B984208D08B4B6E
:10211000984205D08A4B984202D08A4B984201D10E
:102120000B7A038601238382704770B50024002256
:102130000023058C4FF6FE7635400584028C83889B
:10214000048B4FF68F752C40B51E2C400D882C4308
:10215000751E2A400D892A434D882A436A4DA8429C
:102160000BD06F4DA84208D0744DA84205D0744DD5
:10217000A84202D0734DA84213D14FF6F7752A40FA
:102180004D892A434FF6FB752A408D882A434FF626
:10219000FF652B404FF6FF552B408D892B43CD8992
:1021A0002B4383800483CD888586028470BD70B5FF
:1021B000002400220023058C4FF6EF76354005847D
:1021C000028C8388048B48F6FF752C404FF6FF4540
:1021D0002C400D884FF6FF7606EA05252C434FF676
:1021E000DF752A400D8906EA05152A434D8806EA5F
:1021F00005152A43444DA84202D0494DA8421DD19D
:102200004FF67F752A404D894FF6FF7606EA051591
:102210002A434FF6BF752A408D8806EA05152A43E2
:102220004FF6FF352B404FF2FF752B408D8906EAA4
:1022300085052B43CD8906EA85052B4383800483DE
:10224000CD880587028470BD70B50024002200236C
:10225000058C4FF6FF6635400584028C8388848B9D
:102260004FF68F752C404FF6FC752C400D882C4393
:102270004FF6FF552A400D894FF6FF7606EA0525F1
:102280002A434D8806EA05252A431F4DA84202D05D
:10229000234DA8421DD14FF2FF752A404D894FF6BC
:1022A000FF7606EA05252A434FF6FF352A408D883A
:1022B00006EA05252A434EF6FF752B404DF6FF75BD
:1022C0002B408D8906EA05152B43CD8906EA0515B5
:1022D0002B4383808483CD888587028470BD70B54D
:1022E000002200230024058C4EF6FF76354005843D
:1022F000038C8488828B48F6FF752A404FF6FF4591
:102300002A400D8820E00000002C0140000400401D
:1023100000080040000C0040001000400014004085
:1023200000340140004C0140005001400054014085
:1023300000180040001C0040002000400040014008
:1023400000440140004801404FF6FF7606EA0525AB
:102350002A434DF6FF752B400D8906EA05352B43C0
:102360004D8806EA05352B43FA4DA84202D0FA4DB6
:10237000A84208D14BF6FF752C408D894FF6FF76A9
:1023800006EA85152C4384808283CD88A0F84050CE
:10239000038470BD828B4FF2FF331A408283828B9D
:1023A0004FF6FF7303EA01231A4382837047F0B5A7
:1023B0000C461546002200210026078C4EF6FF7CB5
:1023C00007EA0C070784828B018C4FF6FF7707EA38
:1023D000043640F6FF473A404FF6FF7707EA0527F5
:1023E0003A434FF6FF7707EA03373A43D94FB842EB
:1023F0000ED0D94FB8420BD0B0F1804F08D0D74F94
:10240000B84205D0D64FB84202D0D64FB84206D116
:102410004DF6FF77394046F48057394305E047F6DB
:10242000FF57394044F48057394382830184F0BD1B
:10243000828B4FF6F3731A408283828B0A43828326
:102440007047F0B50C461546002200210026078C87
:102450004FF6FF6C07EA0C070784828B018C4FF65E
:10246000FF7707EA04264FF60C773A404FF6FF77DE
:1024700007EA03172F433A43B64FB8420ED0B64F80
:10248000B8420BD0B0F1804F08D0B44FB84205D05D
:10249000B34FB84202D0B34FB84206D14FF6FF5700
:1024A000394046F48077394305E04FF2FF57394011
:1024B00044F48077394382830184F0BD028B4FF26C
:1024C000FF331A400283028B4FF6FF7303EA0123A6
:1024D0001A4302837047F0B50C46154600220021CE
:1024E0000026078C4FF6EF7C07EA0C070784028B67
:1024F000018C4FF6FF7707EA041640F6FF473A4093
:102500004FF6FF7707EA03373A434FF6FF7707EABC
:1025100005273A438F4FB8420ED08F4FB8420BD0A9
:10252000B0F1804F08D08D4FB84205D08C4FB842E3
:1025300002D08C4FB84206D14FF6DF77394046F0D3
:102540001007394305E04FF65F77394044F0100734
:10255000394302830184F0BD028B4FF6F3731A40B6
:102560000283028B0A4302837047F0B50C4615467E
:1025700000220021068C4FF6FE773E400684028B37
:10258000018C4FF60C7632407E1C06EA03162E4371
:102590003243704EB0420ED06F4EB0420BD0B0F10D
:1025A000804F08D06D4EB04205D06D4EB04202D083
:1025B0006C4EB04206D14FF6FD76314044F0010634
:1025C000314305E04FF6F576314044F001063143E2
:1025D00002830184F0BD70B505460C465D48854216
:1025E0000ED05D4885420BD0B5F1804F08D05B48D6
:1025F000854205D05A48854202D05A48854200D1CA
:1026000000E000BF208850B92389A288618828464D
:10261000FFF7ABFFE1882846FFF79EFF25E0208803
:1026200004280AD12389A28861882846FFF753FF2E
:10263000E1882846FFF742FF17E0208808280AD1E2
:102640002389A28861882846FFF7FBFEE188284697
:10265000FFF7EEFE09E02389A28861882846FFF78C
:10266000A6FEE1882846FFF795FE70BD2DE9F041F2
:1026700005460C4600260127608808B9022600E0BE
:102680000026A088012801D1022700E00127208828
:10269000A0B92389A28861882846FFF766FFE188F0
:1026A0002846FFF759FF23893A4631462846FFF767
:1026B00012FFE1882846FFF701FF13E02389A28873
:1026C00061882846FFF707FFE1882846FFF7F6FEF6
:1026D00023893A4631462846FFF747FFE1882846D6
:1026E000FFF73AFFBDE8F0810A884B881A438B88D0
:1026F0001A43CB881A430B891A434B891A438B8997
:102700001A43A0F8442070474FF6FF7181800021E2
:102710000180C180418001727047002101804180A9
:102720008180C180018141818181C1817047002107
:1027300001804180012181800021C1800181704799
:102740000021018041808180C1800181418181819E
:1027500070470000002C014000340140000400409C
:1027600000080040000C004021B1028842F0010244
:10277000028004E002884FF6FE731A400280704720
:1027800031B1B0F8442042F40042A0F8442005E002
:10279000B0F84420C2F30E02A0F8442070471AB1EA
:1027A00083890B43838102E083898B438381704754
:1027B0008182704741EA0203A0F8483070471AB19D
:1027C00083890B43838102E083898B438381704734
:1027D00001894FF6F8721140018170470A460021C5
:1027E00001894FF68F73194011430181704730B54D
:1027F00004460D4629462046FFF7F0FF208940F0A9
:102800000700208130BD2DE9F04104460D461646F3
:102810001F46602D06D13B46012231462046FFF778
:102820005AFE05E03B46012231462046FFF79DFE59
:1028300029462046FFF7D2FF208940F0070020817B
:10284000BDE8F08130B50C4600210189C9B24FF6D0
:10285000FF7505EA0325154325432943018130BD52
:102860002DE9F04105460E4617469846002443469A
:102870003A4631462846FFF7E5FF2C894FF6F870B7
:10288000044044F007044FF68F70044044F0700495
:102890002C81BDE8F081F0B504460D4616461F4672
:1028A0003B46324629462046FFF7CCFF208940F4BC
:1028B00080402081F0BD0185828270470A46002158
:1028C00001884FF68F731940114301807047F0B5AE
:1028D0000C4615461E460021002200230189028B6A
:1028E000038C4FF6F877394021434FF6FC473A40C6
:1028F00040F201173A434FF6DD773B404FF6FF7742
:1029000007EA06172F433B43018102830384F0BD8E
:102910000A460021018B4FF68F7319401143018342
:1029200070470A460021018B48F6FF7319404FF6A5
:10293000FF7303EA02231943018370470A4600210B
:10294000818B4FF68F7319401143818370470A467C
:102950000021818B48F6FF7319404FF6FF7303EA9D
:10296000022319438183704721B1028842F080021B
:10297000028004E002884FF67F731A40028070479D
:1029800021B1828842F00402828004E082884FF6FE
:10299000FB731A408280704721B1828842F008029E
:1029A000828004E082884FF6F7731A408280704775
:1029B00021B1828842F00102828004E082884FF6D1
:1029C000FE731A40828070470A460021018B4FF641
:1029D000F77319401143018370470A460021018BA8
:1029E0004FF2FF7319404FF6FF7303EA02231943B6
:1029F000018370470A460021818B4FF6F773194017
:102A00001143818370470A460021818B4FF2FF7387
:102A100019404FF6FF7303EA02231943818370477D
:102A20000A460021018B4FF6FB73194011430183C5
:102A300070470A460021018B4FF6FF3319404FF6CD
:102A4000FF7303EA02231943018370470A460021FA
:102A5000818B4FF6FB7319401143818370470A46FF
:102A60000021818B4FF6FF3319404FF6FF7303EAC5
:102A700002231943818370470A460021018B4FF6D8
:102A80007F7319401143018370470A460021018B6F
:102A9000C1F30E014FF6FF7303EA022319430183CA
:102AA00070470A460021818B4FF67F73194011430E
:102AB000818370470A460021818BC1F30E014FF6D6
:102AC000FF7303EA02231943818370470A460021FA
:102AD000018C4FF6FD7319401143018470470A467B
:102AE0000021018C4FF6F7731940114301847047A0
:102AF0000A460021018C4FF6DF7319404FF6FF7331
:102B000003EA02131943018470470A460021018C2D
:102B10004FF67F7319404FF6FF7303EA0213194310
:102B2000018470470A460021018C4FF6FF5319407B
:102B30004FF6FF7303EA02231943018470470A46E4
:102B40000021018C4FF2FF7319404FF6FF7303EA27
:102B500002231943018470470A460021018C4DF677
:102B6000FF7319404FF6FF7303EA023319430184E0
:102B7000704730B5002301248C40A3B2048C9C43E1
:102B80000484048C02FA01F5ADB22C43048430BDF8
:102B900030B5002304248C40A3B2048C9C430484ED
:102BA000048C02FA01F5ADB22C43048430BD70B53B
:102BB0000346002000241846183001258D40ACB291
:102BC0001D8CA5431D8409B1082909D100EB6100C2
:102BD000056825F0700505600568154305600EE081
:102BE0000D1FC5F34E052844056825F4E045056032
:102BF00005684FF6FF7606EA02263543056070BD8C
:102C000021B1028842F00202028004E002884FF6FD
:102C1000FD731A400280704721B1028842F004021D
:102C2000028004E002884FF6FB731A40028070476E
:102C300021B1828842F08002828004E082884FF6CF
:102C40007F731A408280704702884FF6F7731A40EC
:102C5000028002880A430280704782884FF68F7391
:102C60001A40828082880A438280704702894FF628
:102C7000F8731A40028102890A430281704702896F
:102C80004FF67F731A40028102890A43028170471E
:102C900081847047818570478186704701877047BE
:102CA00081877047A0F84010704702884FF6FF43B5
:102CB0001A40028002880A43028070470146888ECB
:102CC00070470146088F70470146888F704701465C
:102CD000B1F8400070470146888C70470146088D66
:102CE000704702460020138A0B400BB1012000E020
:102CF00000207047CA430282704730B50246002068
:102D000000230024158A05EA0103958905EA0104D8
:102D100013B10CB1012000E0002030BDCA43028293
:102D20007047000010B50446FB48844209D10121D8
:102D30008803FFF79FF800214FF48040FFF79AF8CF
:102D400032E0F648844209D101214804FFF79FF898
:102D500000214FF40030FFF79AF825E0F048844254
:102D600009D101218804FFF792F800214FF4802057
:102D7000FFF78DF818E0EB48844209D10121C8041F
:102D8000FFF785F800214FF40020FFF780F80BE0F3
:102D9000E548844208D101210805FFF778F80021B1
:102DA0004FF48010FFF773F810BD2DE9F04786B09F
:102DB00005460E460024A24600BFA1460027B08962
:102DC00000B100BF2F462C8A4CF6FF700440F088FB
:102DD00004432C82AC894EF6F3100440B08831894C
:102DE0000843718908430443AC81AC8A4FF6FF4025
:102DF0000440B0890443AC8201A8FEF7B4FFC64882
:102E0000874202D1DDF810A001E0DDF80CA0A8890E
:102E100000F4004040B10AEBCA0000EB0A10316830
:102E20004900B0FBF1F807E00AEBCA0000EB0A101A
:102E300031688900B0FBF1F86420B8FBF0F00401C0
:102E40002009642101FB1089A88900F4004040B1E9
:102E5000322000EBC900B0FBF1F000F007000443A2
:102E600008E0322000EB09106421B0FBF1F000F023
:102E70000F0004432C8106B0BDE8F0874FF41651D3
:102E8000016000218180C18001810C2141810021EC
:102E90008181704710B502460020108A4FF2FF036F
:102EA00018400B884C8823438C882343CC882343C9
:102EB0001843108210BD0021018041808180C180B3
:102EC000704721B1828942F40052828104E08289F4
:102ED0004DF6FF731A4082817047F0B50346002417
:102EE00000260025002040F66A17B94200D100BF35
:102EF0001846C1F3421401F01F06012707FA06F530
:102F0000012C01D10C3004E0022C01D1103000E082
:102F100014301AB107682F43076002E00768AF4317
:102F20000760F0BD1AB1838A0B43838202E0838A73
:102F30008B4383827047028A4FF6F0731A400282F5
:102F4000028A0A430282704782894FF2FF731A4055
:102F5000828182890A438281704721B1828942F04D
:102F60000202828104E082894FF6FD731A40828159
:102F70007047028A4FF6DF731A400282028A0A43C0
:102F80000282704721B1028A42F48042028204E048
:102F9000028A4BF6FF731A4002827047C1F308029F
:102FA0008280704701468888C0F308007047818995
:102FB00041F0010181817047028BD2B20283028B02
:102FC00042EA012202837047028B02F47F420283AD
:102FD000028B0A430283704721B1828A42F02002A9
:102FE000828204E0828A4FF6DF731A408282704741
:102FF00021B1828A42F01002828204E0828A4FF676
:10300000EF731A408282704721B1828A42F008022F
:10301000828204E0828A4FF6F7731A4082827047F8
:1030200021B1828942F40042828103E08289C2F3A5
:103030000E028281704721B1828A42F4006282824C
:1030400004E0828A4FF2FF731A4082827047828ABC
:103050004FF6FB731A408282828A0A43828270474B
:1030600021B1828A42F00202828204E0828A4FF613
:10307000FD731A408282704702460020B1F5007F3E
:1030800000D100BF13880B400BB1012000E00020ED
:10309000704701F40072B2F5007F00D100BFCA434F
:1030A0000280704770B502460024002300250020EE
:1030B00040F66A16B14200D100BFC1F3421501F0DB
:1030C0001F03012606FA03F3012D02D1968933402E
:1030D00006E0022D02D1168A334001E0968A334081
:1030E0000C12012606FA04F41688344013B10CB110
:1030F000012000E0002070BD10B50022002340F642
:103100006A14A14200D100BF0A1201249440A3B264
:10311000DC43048010BD0000003801400044004042
:1031200000480040004C00400050004009488047E3
:1031300009480047FEE7FEE7FEE7FEE7FEE7FEE799
:10314000FEE7FEE7FEE7FEE704480549054A064BB1
:10315000704700004B320008ED00000860120020AC
:103160006018002060140020601400200CB50020BE
:10317000019000906C48006840F480306A49086013
:1031800000BF6948006800F4003000900198401CBE
:103190000190009818B90198B0F5A06FF1D162487C
:1031A000006800F4003010B10120009001E0002020
:1031B00000900098012843D15C48006840F010005E
:1031C0005A4908600846006820F003000860084675
:1031D000006840F002000860534840685249486067
:1031E0000846406848600846406840F4806048608F
:1031F0000846406820F47C1048600846406840F467
:10320000E81048600846006840F08070086000BF21
:103210004548006800F000700028F9D04248406836
:1032200020F00300404948600846406840F0020032
:10323000486000BF3C48406800F00C000828F9D105
:103240000CBD10B5FFF792FF10BD10B536480068F1
:1032500040F001003449086008464068344908409D
:103260003149486008460068324908402E490860E4
:103270000846006820F4802008600846406820F472
:10328000FE0048604FF41F008860FFF7DAFF4FF040
:1032900000602949086010BD10B5002100200022FF
:1032A000214B5B6803F00C0121B1042906D00829E9
:1032B00028D107E0214B224C236027E01F4B204CF4
:1032C000236023E0184B5B6803F47010164B5B68B7
:1032D00003F48032022303EB904022B9194B43439D
:1032E000174C23600DE0104B5B6803F4003323B1EF
:1032F000144B4343124C236003E0104B4343104CE8
:10330000236003E00D4B0E4C236000BF00BF064B53
:103310005B68C3F303130C4CE15C094B1B68CB40A7
:10332000074C236010BD0000001002400020024046
:103330000000FFF8FFFFF6FE08ED00E000127A0043
:103340003800002000093D003C00002000F1080189
:1033500041604FF0FF31816000F10801C1600161FF
:1033600000210160704700210161704742684A6096
:1033700093688B60936859609160086103685B1C77
:103380000360704710B502460B685C1C0CB91069ED
:1033900007E002F1080000E04068446824689C42AD
:1033A000FAD944684C604C68A160886041600A6149
:1033B0001468641C146010BD01460A69D1E901302B
:1033C0009860D1E9010358605068884201D188684B
:1033D0005060002008611068401E1060106870473F
:1033E00010B501469F4800E0006803688B42FBD39C
:1033F0000246436813448B4204D143684C6823441B
:10340000436001460A464B6813440468A34211D145
:10341000954C03682468A34208D04B68046864682C
:1034200023444B6003681B680B6005E08E4B1B68F0
:103430000B6001E003680B60884200D0016010BDA2
:1034400030B54FF48053894800F007042CB1C01DFB
:1034500020F00700854C041B1B1B0246814C226098
:103460000024804D6C60D018083820F007007E4C96
:10347000206000247C4D2D686C607B4D2D682C6095
:103480001146441A4C60784C24680C60784D4C68A6
:103490002C60784D4C682C604FF00044764D2C60C9
:1034A00030BD2DE9F04104464FF0000801F01DFD4C
:1034B0006D48006808B9FFF7C3FF6F4800682040F7
:1034C00000286BD1D4B1083404F00700B0B104F087
:1034D0000700C0F10800044404F0070008B9012007
:1034E00000E0002050B900BFA02080F31188BFF396
:1034F0004F8FBFF36F8F00BF00BFFEE7002C4DD092
:103500005C480068844249D8564E3046056801E060
:103510002E462D686868A04202D228680028F7D19C
:1035200051480068854239D0306800F108082868A1
:1035300030606868001B102819D92F1907F00700A0
:1035400008B9012000E0002050B900BFA02080F39E
:103550001188BFF34F8FBFF36F8F00BF00BFFEE72F
:103560006868001B78606C603846FFF739FF414996
:1035700068680968081A3F490860084600683C49BD
:103580000968884203D23B480068394908603A49D3
:1035900068680968084368600020286001F0F7FB4C
:1035A00008F0070008B9012000E0002050B900BF72
:1035B000A02080F31188BFF34F8FBFF36F8F00BF40
:1035C00000BFFEE74046BDE8F08170B506463546CF
:1035D000002E3FD0083D2C46274960680968084006
:1035E00008B1012000E0002050B900BFA02080F306
:1035F0001188BFF34F8FBFF36F8F00BF00BFFEE78F
:10360000206808B9012000E0002050B900BFA020C8
:1036100080F31188BFF34F8FBFF36F8F00BF00BFE0
:10362000FEE7154960680968084098B1206888B9C4
:103630001149606809688843606001F056FC0D49D3
:103640006068096808440B4908602046FFF7C8FE17
:1036500001F09DFB70BD0748006870470448006892
:10366000704770474C0000205400002010010020DB
:103670005C0000205800002060000020AB4800687B
:10368000401C08B9012000E0002050B900BFA02074
:1036900080F31188BFF34F8FBFF36F8F00BF00BF60
:1036A000FEE700BFA02080F31188BFF34F8FBFF368
:1036B0006F8F00BF00BFFEE7001F4FF080730360F5
:1036C000001F21F001030360001F994B03601438B1
:1036D00002602038704700204FF0E02108618861C7
:1036E000944800684FF47A71B0FBF1F0401E4FF03F
:1036F000E02148610720086170471CB58E490846E3
:1037000000780190FF200A4610700846007800906B
:103710009DF8000000F47F609DF80020904201D1E8
:10372000012000E0002050B900BFA02080F31188E4
:10373000BFF34F8FBFF36F8F00BF00BFFEE79DF851
:10374000000000F0A0007D4A107007207C4A106045
:1037500009E07B480068401E794A10609DF800002F
:103760004006000E00909DF8000000F080008028C8
:10377000EFD073480068C0F10700042801D1012090
:1037800000E0002050B900BFA02080F31188BFF3F3
:103790004F8FBFF36F8F00BF00BFFEE76848006820
:1037A0000002674A10601046008800F4E060106074
:1037B000614A019810706348006840F07F60614979
:1037C00008600846006840F070400860FFF783FF1B
:1037D000002056490860FCF7E9FC00201CBD534856
:1037E0000068B0F57A7F01D1012000E0002050B9D7
:1037F00000BFA02080F31188BFF34F8FBFF36F8FFE
:1038000000BF00BFFEE7704700BFA02080F3118813
:10381000BFF34F8FBFF36F8F00BF44480068401C59
:103820004249086008460068012813D145481C3801
:103830000068C0B208B9012000E0002050B900BF04
:10384000A02080F31188BFF34F8FBFF36F8F00BFAD
:1038500000BFFEE770473548006850B900BFA020A0
:1038600080F31188BFF34F8FBFF36F8F00BF00BF8E
:10387000FEE72E480068401E2C4908600846006894
:1038800020B9002080F3118800BF00BF704710B539
:1038900000BFA02080F31188BFF34F8FBFF36F8F5D
:1038A00000BF01F0C1F920B14FF0805025491C390B
:1038B000086000BF002080F3118800BF10BD70B504
:1038C000FCF7AAFC0446102C16D304F1E02090F873
:1038D000F0531A480078854201DB012000E0002007
:1038E00050B900BFA02080F31188BFF34F8FBFF302
:1038F0006F8F00BF00BFFEE712481438006800F465
:10390000E0600F490968884201D8012000E00020EA
:1039100050B900BFA02080F31188BFF34F8FBFF3D1
:103920006F8F00BF00BFFEE770BD00006400002085
:103930007D3600083800002000E400E06800002028
:103940006C00002020ED00E070B505460E462C46C8
:1039500054B900BFA02080F31188BFF34F8FBFF38D
:103960006F8F00BF00BFFEE7FFF74EFFD4E90F12D5
:10397000206801FB020060600020A0632068A06056
:10398000E06B401E226C216800FB0210E060FF200B
:1039900084F8440084F845009EB9206908B90120E4
:1039A00000E00020A8B904F1100001F0BFFE80B1D2
:1039B0004FF08050FE490860BFF34F8FBFF36F8F09
:1039C00007E004F11000FFF7C1FC04F12400FFF749
:1039D000BDFCFFF740FF012070BD2DE9F041064618
:1039E0000D4617469846069C0DB9246000E02760F6
:1039F000E663256401212046FFF7A6FF0020A064AE
:103A0000BDE8F0812DE9F84305460E4690460DB11C
:103A1000012000E0002050B900BFA02080F31188F1
:103A2000BFF34F8FBFF36F8F00BF00BFFEE70EB92C
:103A3000002701E005FB06F707F14C00FFF731FD19
:103A4000044644B104F14C0943464A4631462846EF
:103A50000094FFF7C2FF2046BDE8F8832DE9F0414E
:103A600004460F4615464FF00008A66B206C40B97F
:103A7000206860BB606801F0B2FF80460020606093
:103A800025E07DB93946226CA06802F0B2FD216CB8
:103A9000A0680844A060D4E90110884217D32068C8
:103AA000A06014E03946226CE06802F0A2FD216CAF
:103AB000E068401AE0602168E068884203D2216C27
:103AC0006068401AE060022D01D106B1761E701CBC
:103AD000A0634046BDE8F0812DE9F3410D46009812
:103AE000846C002754B900BFA02080F31188BFF375
:103AF0004F8FBFF36F8F00BF00BFFEE7A06BE16B7E
:103B0000884201D2012000E0002050B900BFA0206F
:103B100080F31188BFF34F8FBFF36F8F00BF00BFDB
:103B2000FEE7A06BE16B88421BD294F945602A4600
:103B300069462046FFF792FF0746701C60B9606A2D
:103B400008B9012000E0002050B904F1240001F080
:103B5000EDFD28B1012703E0701C40B284F8450058
:103B600000BF3846BDE8FC8170B50446FFF74CFE47
:103B700094F945501AE0A06C38B100212046FFF7B7
:103B8000ABFF88B101F0BBFE0EE0606A08B901200E
:103B900000E0002038B904F1240001F0C7FD18B19D
:103BA00001F0ADFE00E003E0681E45B2002DE2DC4E
:103BB00000BFFF2084F84500FFF74DFEFFF724FE0D
:103BC00094F9445010E0206908B9012000E0002079
:103BD00048B904F1100001F0A9FD08B101F08FFE11
:103BE000681E45B200E001E0002DECDC00BFFF20C4
:103BF00084F84400FFF72FFE70BD70B50546FFF74F
:103C000003FEA86BE96B884201D1012400E0002487
:103C1000FFF721FE204670BD2DE9FF4383B0064625
:103C200088461D464FF00009344654B900BFA02015
:103C300080F31188BFF34F8FBFF36F8F00BF00BFBA
:103C4000FEE7B8F1000F01D1206C08B9012000E0B7
:103C5000002050B900BFA02080F31188BFF34F8F20
:103C6000BFF36F8F00BF00BFFEE7022D02D1E06BF4
:103C7000012801D1012000E0002050B900BFA020A0
:103C800080F31188BFF34F8FBFF36F8F00BF00BF6A
:103C9000FEE701F03BFE08B9059808B9012000E0F5
:103CA000002050B900BFA02080F31188BFF34F8FD0
:103CB000BFF36F8F00BF00BFFEE700BFFFF7A4FD9B
:103CC000A06BE16B884201D3022D38D12A464146D0
:103CD0002046FFF7C3FE0746A06C68B12946204680
:103CE000FFF7FAFE28B34FF0805031490860BFF368
:103CF0004F8FBFF36F8F1CE0606A08B9012000E0AE
:103D0000002068B904F1240001F010FD88B14FF0E3
:103D1000805027490860BFF34F8FBFF36F8F08E0D3
:103D20003FB14FF0805022490860BFF34F8FBFF37F
:103D30006F8FFFF790FD012007B0BDE8F083059875
:103D400018B9FFF788FD0020F6E7B9F1000F04D19C
:103D500001A801F08BFD4FF00109FFF77CFD01F098
:103D6000C4F8FFF751FD94F94400401C10B900203D
:103D700084F8440094F94500401C10B9002084F8F0
:103D80004500FFF768FD05A901A801F076FD08BB15
:103D90002046FFF732FFB8B104F11000059901F099
:103DA0005BFC2046FFF7E0FE00F0F1FF002801E099
:103DB00004ED00E082D14FF08050FE490860BFF36F
:103DC0004F8FBFF36F8F79E72046FFF7CDFE00F0EE
:103DD000DEFF73E72046FFF7C7FE00F0D8FF0020A4
:103DE000AAE710B504464CB1002060602060E06096
:103DF00000231A4619462046FFF70EFF10BD2DE995
:103E0000F041044601260027224600210120FFF749
:103E1000F9FD05462846FFF7E4FF2846BDE8F08196
:103E200070B505462C4654B900BFA02080F3118818
:103E3000BFF34F8FBFF36F8F00BF00BFFEE701F0EE
:103E400062FD616888420CD1E068401EE060E06875
:103E500028B900231A4619462046FFF7DDFE012641
:103E600000E00026304670BD01464A6A22B10A6B66
:103E70001268C2F1050000E00020704770B50546E9
:103E8000FFF7C2FCA86B08B9012400E00024FFF78B
:103E9000E2FC204670BD2DE9F34182B005464FF0AB
:103EA00000082C46002654B900BFA02080F31188DA
:103EB000BFF34F8FBFF36F8F00BF00BFFEE7206CD3
:103EC00008B9012000E0002050B900BFA02080F315
:103ED0001188BFF34F8FBFF36F8F00BF00BFFEE7A6
:103EE00001F014FD08B9039808B9012000E0002092
:103EF00050B900BFA02080F31188BFF34F8FBFF3EC
:103F00006F8F00BF00BFFEE700BFFFF77DFCA76B10
:103F1000FFB1781EA063206810B901F052FE606006
:103F2000206908B9012000E0002060B904F1100008
:103F300001F0FCFB38B14FF080509E490860BFF3A0
:103F40004F8FBFF36F8FFFF786FC012004B0BDE8F1
:103F5000F081039898B90EB9012000E0002050B913
:103F600000BFA02080F31188BFF34F8FBFF36F8F86
:103F700000BF00BFFEE7FFF76EFC0020E6E7B8F1E8
:103F8000000F04D1684601F071FC4FF00108FFF703
:103F900062FC00F0AAFFFFF737FC94F94400401CD4
:103FA00010B9002084F8440094F94500401C10B971
:103FB000002084F84500FFF74EFC03A9684601F095
:103FC0005CFC40BB2046FFF759FFF0B1206838B9D0
:103FD000FFF71AFC606801F0A5FC0646FFF73BFC02
:103FE00004F12400039901F037FB2046FFF7BCFDE4
:103FF00000F0CDFE002888D14FF080506D49086058
:10400000BFF34F8FBFF36F8F7FE72046FFF7ACFD05
:1040100000F0BDFE79E72046FFF7A6FD00F0B7FEF1
:104020002046FFF72BFF0028EED05EB1FFF7ECFB38
:104030002046FFF719FF07463946606801F042FD48
:10404000FFF709FC002081E72DE9F04106460F4605
:10405000344654B900BFA02080F31188BFF34F8FBE
:10406000BFF36F8F00BF00BFFEE701F04CFC61683B
:10407000884204D1E068401CE060012508E0394630
:104080002046FFF708FF054615B1E068401CE060D8
:104090002846BDE8F08170B505460E460DB10120F9
:1040A00000E0002050B900BFA02080F31188BFF3CA
:1040B0004F8FBFF36F8F00BF00BFFEE7AE4201D846
:1040C000012000E0002050B900BFA02080F311883B
:1040D000BFF34F8FBFF36F8F00BF00BFFEE7022219
:1040E00000212846FFF78EFC044604B1A663204653
:1040F00070BD2DE9F05F80468A4615461E4644464F
:1041000054B900BFA02080F31188BFF34F8FBFF3D5
:104110006F8F00BF00BFFEE7BAF1000F01D1206C26
:1041200008B9012000E0002050B900BFA02080F3B2
:104130001188BFF34F8FBFF36F8F00BF00BFFEE743
:10414000022E02D1E06B012801D1012000E0002005
:1041500050B900BFA02080F31188BFF34F8FBFF389
:104160006F8F00BF00BFFEE7FFF7A9FB00BFA021D4
:10417000EFF3118081F31188BFF34F8FBFF36F8F7F
:1041800000BF0746A06BE16B884201D3022E2ED1FF
:1041900094F945B0324651462046FFF75FFC0BF1DB
:1041A0000100E0B9A06C58B131462046FFF794FCFD
:1041B000D0B101E004ED00E0B5B10120286013E0CA
:1041C000606A08B9012000E0002068B904F1240009
:1041D00001F0ACFA40B13DB10120286004E00BF1E0
:1041E000010040B284F845004FF0010901E04FF0B2
:1041F000000900BF87F3118800BF4846BDE8F09F63
:104200002DE9F04707460D463C4654B900BFA020B3
:1042100080F31188BFF34F8FBFF36F8F00BF00BFD4
:10422000FEE7206C08B9012000E0002050B900BF73
:10423000A02080F31188BFF34F8FBFF36F8F00BFB3
:1042400000BFFEE7206808B9606808B9012000E0F7
:10425000002050B900BFA02080F31188BFF34F8F1A
:10426000BFF36F8F00BF00BFFEE7FFF728FB00BF63
:10427000A021EFF3118081F31188BFF34F8FBFF3BB
:104280006F8F00BF0646D4F83890E06B484529D9B7
:1042900094F945A009F10100A0630AF10100C8B931
:1042A000A06C40B100212046FFF716FCB8B1B5B1B3
:1042B0000120286013E0606A08B9012000E00020B6
:1042C00068B904F1240001F031FA40B13DB1012098
:1042D000286004E00AF1010040B284F845004FF084
:1042E000010801E04FF0000800BF86F3118800BF0D
:1042F0004046BDE8F08770B504460D46206C70B1AD
:10430000216CE0680844E0606168E068884201D39D
:104310002068E0602846226CE16802F06AF970BD0E
:104320002DE9F74183B005460E464FF000082C46B4
:1043300054B900BFA02080F31188BFF34F8FBFF3A3
:104340006F8F00BF00BFFEE70EB9206C08B90120D7
:1043500000E0002050B900BFA02080F31188BFF317
:104360004F8FBFF36F8F00BF00BFFEE701F0CEFAA3
:1043700008B9059808B9012000E0002050B900BF35
:10438000A02080F31188BFF34F8FBFF36F8F00BF62
:1043900000BFFEE700BFFFF737FAA76BF7B1314662
:1043A0002046FFF7A8FF781EA063206908B9012006
:1043B00000E0002060B904F1100001F0B7F938B155
:1043C0004FF08050FA490860BFF34F8FBFF36F8FF3
:1043D000FFF741FA012006B0BDE8F081059818B951
:1043E000FFF739FA0020F6E7B8F1000F04D101A871
:1043F00001F03CFA4FF00108FFF72DFA00F075FDCF
:10440000FFF702FA94F94400401C10B9002084F828
:10441000440094F94500401C10B9002084F8450080
:10442000FFF719FA05A901A801F027FAF0B920460B
:10443000FFF724FDA0B104F12400059901F00CF967
:104440002046FFF791FB00F0A2FC0028A3D14FF01B
:104450008050D7490860BFF34F8FBFF36F8F9AE743
:104460002046FFF781FB00F092FC94E72046FFF71F
:104470007BFB00F08CFC2046FFF700FD00288AD073
:104480000020A8E72DE9F74382B005460E464FF01D
:1044900000082C4654B900BFA02080F31188BFF358
:1044A0004F8FBFF36F8F00BF00BFFEE70EB9206CC8
:1044B00008B9012000E0002050B900BFA02080F31F
:1044C0001188BFF34F8FBFF36F8F00BF00BFFEE7B0
:1044D00001F01CFA08B9049808B9012000E0002096
:1044E00050B900BFA02080F31188BFF34F8FBFF3F6
:1044F0006F8F00BF00BFFEE700BFFFF785F9D4F85C
:104500003890B9F1000F1ED0E76831462046FFF71A
:10451000F2FEE760606A08B9012000E0002060B99F
:1045200004F1240001F002F938B14FF08050A049A5
:104530000860BFF34F8FBFF36F8FFFF78CF9012037
:1045400005B0BDE8F083049818B9FFF784F900209E
:10455000F6E7B8F1000F04D1684601F087F94FF093
:104560000108FFF778F900F0C0FCFFF74DF994F966
:104570004400401C10B9002084F8440094F9450020
:10458000401C10B9002084F84500FFF764F904A925
:10459000684601F072F9F0B92046FFF76FFCA0B150
:1045A00004F12400049901F057F82046FFF7DCFAE3
:1045B00000F0EDFB0028A0D14FF080507C4908604E
:1045C000BFF34F8FBFF36F8F97E72046FFF7CCFA0B
:1045D00000F0DDFB91E72046FFF7C6FA00F0D7FBBD
:1045E0002046FFF74BFC002887D00020A8E72DE9E4
:1045F000F05F064689461746344654B900BFA020EE
:1046000080F31188BFF34F8FBFF36F8F00BF00BFE0
:10461000FEE7B9F1000F01D1206C08B9012000E0DC
:10462000002050B900BFA02080F31188BFF34F8F46
:10463000BFF36F8F00BF00BFFEE7FFF740F900BF79
:10464000A021EFF3118081F31188BFF34F8FBFF3E7
:104650006F8F00BF0546D4F838A0BAF1000F22D002
:1046600094F944B049462046FFF745FEAAF10100FF
:10467000A0630BF1010070B9206908B9012000E0C6
:10468000002068B904F1100001F050F840B13FB1CA
:104690000120386004E00BF1010040B284F84400CE
:1046A0004FF0010801E04FF0000800BF85F31188CA
:1046B00000BF4046BDE8F09F2DE9F047064688461A
:1046C000344654B900BFA02080F31188BFF34F8F48
:1046D000BFF36F8F00BF00BFFEE7B8F1000F01D13D
:1046E000206C08B9012000E0002050B900BFA020D4
:1046F00080F31188BFF34F8FBFF36F8F00BF00BFF0
:10470000FEE7206C08B1012000E0002050B900BF96
:10471000A02080F31188BFF34F8FBFF36F8F00BFCE
:1047200000BFFEE7FFF7CBF800BFA021EFF3118039
:1047300081F31188BFF34F8FBFF36F8F00BF054622
:10474000A06B48B1D4F80C9041462046FFF7D3FD4A
:10475000C4F80C90012700E0002700BF85F3118802
:1047600000BF3846BDE8F08770B5044654B900BFB5
:10477000A02080F31188BFF34F8FBFF36F8F00BF6E
:1047800000BFFEE7FFF740F8A56BFFF764F8284687
:1047900070BD70B50446254665B900BFA02080F302
:1047A0001188BFF34F8FBFF36F8F00BF00BFFEE7CD
:1047B00004ED00E0FFF728F8D5E90E10461AFFF7E0
:1047C0004AF8304670BD014651B900BFA02282F3BD
:1047D0001188BFF34F8FBFF36F8F00BF00BFFEE79D
:1047E000886B704770B50446254655B900BFA020B8
:1047F00080F31188BFF34F8FBFF36F8F00BF00BFEF
:10480000FEE72846FEF7E1FE70BD014651B900BF44
:10481000A02282F31188BFF34F8FBFF36F8F00BFC9
:1048200000BFFEE78A6B0AB9012000E00020704754
:10483000014651B900BFA02282F31188BFF34F8F08
:10484000BFF36F8F00BF00BFFEE78A6BCB6B9A424E
:1048500001D1012000E0002070472DE9F04105461C
:104860000E4617462C46FEF7CFFF94F94400401C35
:1048700010B9002084F8440094F94500401C10B998
:10488000002084F84500FEF7E6FFA06B28B93A4601
:10489000314604F1240000F02BFF2046FFF764F9B5
:1048A000BDE8F08170B50446002204212046FFF7E0
:1048B000A9F80546284670BD70B504460E46FEF7B9
:1048C000A3FFA06C08B1002505E0A06B08B100258E
:1048D00001E0A6640125FEF7BEFF284670BD2DE964
:1048E000F04105460F462E46B06CB84201D0002478
:1048F0000AE0B06B08B1002406E0FEF785FF002057
:10490000B064FEF7A8FF01242046BDE8F08138B569
:1049100005460C4600200090224669462846FFF7CF
:10492000FFFC009838BD38B50446002000900022F6
:1049300069462046FFF75BFE009838BD10B500249D
:1049400007E004EB8401F84A02EB8100FEF7FEFC6D
:10495000641C052CF5D3F548FEF7F8FCF448FEF787
:10496000F5FCF448FEF7F2FCF348FEF7EFFCF348E1
:10497000FEF7ECFCED48F2490860ED48F1490860AB
:1049800010BD10B50446FEF73FFFEF480068401C1D
:10499000ED490860ED48006840B9EC4804600846FD
:1049A000006801280DD1FFF7C9FF0AE0E848006858
:1049B00038B9E6480068C06AE16A884201D8E3482D
:1049C0000460E4480068401CE249086094F82C1038
:1049D00001208840E04909680843DF490860E16A2E
:1049E00001EB8101D04A02EB8100211DFEF7BEFCE4
:1049F000FEF731FFD648006868B1D4480068C06A45
:104A0000E16A884207D24FF08050D4490860BFF372
:104A10004F8FBFF36F8F10BD2DE9FF5F81460F46AB
:104A20009246DDE90E6B109CAAF10100216B01EBAF
:104A3000800828F0070808F0070008B9012000E006
:104A4000002050B900BFA02080F31188BFF34F8F22
:104A5000BFF36F8F00BF00BFFEE7002507E0795D61
:104A600004F134004155785D00B902E06D1C0A2D57
:104A7000F5D300BF00213D200155052E00D30426AB
:104A8000E662266400206064201DFEF76CFC04F1E1
:104A90001800FEF768FC2461C6F10500A06164629D
:104AA0000020A06484F84C0049464046039AFEF773
:104AB00003FE2060BBF1000F01D0CBF80040BDE841
:104AC000FF9F2DE9FF4F85B0804689461746DDE9F7
:104AD00012ABB800FEF7E5FC064656B15020FEF7D3
:104AE000E0FC04460CB1266304E03046FEF76DFDA1
:104AF00000E000247CB10020CDE900ABCDE902400C
:104B00003A4649464046089BFFF786FF2046FFF796
:104B100038FF012501E04FF0FF35284609B0BDE818
:104B2000F08F87490968096809B9012100E000216F
:104B300021B14FF0FF318A4A116006E080490968CF
:104B4000C968C868864A41681160704710B5044654
:104B5000206BFEF73AFD2046FEF737FD10BD70B51D
:104B60000546FEF751FE15B97848006800E0284672
:104B70000446201DFEF720FC78B9E06A00EB8000B7
:104B8000694951F8200040B994F82C100120884060
:104B900071490968814370480160A06A18B104F145
:104BA0001800FEF709FC6B480068401C6949086062
:104BB00066480068844209D1211D5F48FEF7D6FB94
:104BC00068480068401C6749086009E05E48006862
:104BD000401E5D4908602046FFF7B8FFFFF7A1FFC0
:104BE000FEF739FE5A480068E8B158480068844228
:104BF00019D15D48006808B9012000E0002050B9D3
:104C000000BFA02080F31188BFF34F8FBFF36F8FD9
:104C100000BF00BFFEE74FF0805050490860BFF36F
:104C20004F8FBFF36F8F70BD2DE9F0414FF000083B
:104C30004D480068002876D14C480068451C4B4818
:104C4000056015BB3E480068006808B9012000E017
:104C5000002050B900BFA02080F31188BFF34F8F10
:104C6000BFF36F8F00BF00BFFEE7354807683548C8
:104C7000006833490860334807603D480068401CBD
:104C80003B490860FFF74DFF00BF3548006885428B
:104C90003CD300BF2A480068006808B9012000E042
:104CA000002020B14FF0FF302D4908602DE024484E
:104CB0000068C068C4686668B54202D228480660C9
:104CC00023E0201DFEF778FBA06A18B104F118005C
:104CD000FEF772FB94F82C10012088401E490968E9
:104CE00008431D490860E16A01EB81010E4A02EBAD
:104CF0008100211DFEF73AFB1449E06A0968C96A80
:104D00008842C7D34FF00108C4E700BF0F480068CE
:104D1000C06A00EB8000044951F82000012801D945
:104D20004FF001082BE025E0101100207411002045
:104D3000881100209C110020B0110020C411002017
:104D40007400002078000020800000207000002007
:104D50008C0000209C0000208800002004ED00E072
:104D6000A00000207C000020A8000020840000207B
:104D700098000020FE480068401CFD490860FD487E
:104D8000006808B14FF001084046BDE8F08170B5F9
:104D900000240026F848006850B900BFA02080F326
:104DA0001188BFF34F8FBFF36F8F00BF00BFFEE7C7
:104DB000FEF72AFDF0480068401EEF4908600846EB
:104DC000006800284FD1ED48006800284BD024E04F
:104DD000EB48C068C46804F11800FEF7EDFA201D26
:104DE000FEF7EAFA94F82C1001208840E54909689A
:104DF0000843E4490860E16A01EB8101E24A02EB01
:104E00008100211DFEF7B2FAE049E06A0968C96A2B
:104E1000884202D30120D7490860D948006808B900
:104E2000012000E000200028D2D00CB1FFF779FE6D
:104E3000CF48056865B100BFFFF7F6FE10B101204D
:104E4000CC4908606D1E002DF6D10020C8490860CD
:104E5000C848006838B101263007CD490860BFF363
:104E60004F8FBFF36F8FFEF7F6FC304670BD2DE914
:104E7000F04105460E46C7480768C4480068001D53
:104E8000FEF79AFA50B9C148006890F82C1001203A
:104E90008840BC4909688143BA480160681C38B938
:104EA00036B1BA480168091DBB48FEF75FFA1AE03F
:104EB0007C19B64800684460BC4207D2B348016818
:104EC000091DB6480068FEF75DFA0CE0AF480168BE
:104ED000091DB3480068FEF755FAB24800688442DD
:104EE00001D2B0480460BDE8F081A3480068401CCE
:104EF000A149086070472DE9F04704460F464FF07E
:104F0000000954B900BFA02080F31188BFF34F8F70
:104F1000BFF36F8F00BF00BFFEE70FB1012000E0BD
:104F2000002050B900BFA02080F31188BFF34F8F3D
:104F3000BFF36F8F00BF00BFFEE78F48006808B95E
:104F4000012000E0002050B900BFA02080F31188AC
:104F5000BFF34F8FBFF36F8F00BF00BFFEE7FFF7B8
:104F6000C4FF8C4806682068C5192068B04207D97C
:104F70002068A8420BD9B54209D94FF0010906E0D3
:104F80002068A84201D8B54201D94FF00109256037
:104F9000B9F1000F03D0A81B0021FFF768FFFFF74E
:104FA000F6FE8046B8F1000F07D14FF080507849E7
:104FB0000860BFF34F8FBFF36F8FBDE8F08770B508
:104FC00004460025D4B16C48006808B9012000E00F
:104FD000002050B900BFA02080F31188BFF34F8F8D
:104FE000BFF36F8F00BF00BFFEE7FFF77EFF00211A
:104FF0002046FFF73CFFFFF7CAFE05463DB94FF0DC
:10500000805063490860BFF34F8FBFF36F8F70BD4F
:105010002DE9F04107463E4656B900BFA02080F377
:105020001188BFF34F8FBFF36F8F00BF00BFFEE744
:1050300056480068864201D100241EE0FEF7E4FBDA
:105040007569FEF708FC56480068854203D053484E
:105050000068854201D102240FE04F48854205D106
:10506000B06A08B9032408E0022406E04E488542ED
:1050700000D00DB9042400E001242046BDE8F081F1
:1050800070B50446FEF7C0FB14B94048006800E064
:1050900020460646F56AFEF7DEFB284670BD2DE980
:1050A000F0410546FEF70BFC00BFA021EFF3118095
:1050B00081F31188BFF34F8FBFF36F8F00BF04469A
:1050C00015B93248006800E028460746FE6A00BF6E
:1050D00084F3118800BF3046BDE8F0812DE9F04728
:1050E00080460D464FF00009052D01D2012000E059
:1050F000002050B900BFA02080F31188BFF34F8F6C
:10510000BFF36F8F00BF00BFFEE7052D00D304255E
:10511000FEF77AFBB8F1000F02D11C48006800E0EE
:1051200040460446266CAE4275D0B5420BD91748AE
:10513000006884420DD015480068C06AA84208D8AB
:105140004FF0010905E011480068844201D14FF099
:105150000109E76AE16A206C884200D1E5622564B2
:10516000A06900F0004010B9C5F10500A0611DE084
:105170009000002094000020A80000208000002063
:105180009C110020880000201011002070000020D9
:1051900004ED00E084000020C4110020780000200D
:1051A00074000020A0000020B011002007EB870150
:1051B000FC4A02EB81016069884201D1012000E0D4
:1051C0000020E0B1201DFEF7F7F830B90120B8400B
:1051D000F54909688143F448016094F82C100120D6
:1051E0008840F14909680843EF490860E16A01EB2A
:1051F0008101EC4A02EB8100211DFEF7B7F8B9F1FD
:10520000000F07D04FF08050E8490860BFF34F8F80
:10521000BFF36F8F00BFFEF71EFBBDE8F087E448C9
:10522000006818B10120E349086032E00020E1493C
:105230000860DD480068B0FA80F0C0F11F0101EBA2
:105240008100D84A52F8200008B1012000E0002077
:1052500050B900BFA02080F31188BFF34F8FBFF378
:105260006F8F00BF00BFFEE701EB8102CD4B03EB68
:10527000820042685268426000F10802436893422B
:1052800002D14268526842604268D268CA4B1A60D2
:1052900000BF704770B50546FEF7B6FA15B9C648A7
:1052A000006800E028460446201DFEF785F878B91E
:1052B000E06A00EB8000BB4951F8200040B994F847
:1052C0002C1001208840B84909688143B648016024
:1052D000A06A18B104F11800FEF76EF8211DB74856
:1052E000FEF744F894F84C00012802D1002084F81D
:1052F0004C00FEF7B0FAB248006828B1FEF784FA15
:10530000FFF70FFCFEF7A7FAAB480068844229D1EB
:10531000AB480068D0B1A648006808B9012000E099
:10532000002050B900BFA02080F31188BFF34F8F39
:10533000BFF36F8F00BF00BFFEE74FF080509B4967
:105340000860BFF34F8FBFF36F8F0BE09B4800687F
:105350009C490968884203D100209749086001E010
:10536000FFF75DFF70BD10B502460020114652B92F
:1053700000BFA02383F31188BFF34F8FBFF36F8F5C
:1053800000BF00BFFEE78D4C4B69A34201D1012352
:1053900000E0002373B18C4C8B6AA34201D101233E
:1053A00000E0002333B98B6A0BB9012300E000232E
:1053B00003B1012010BD70B505462C4655B900BF9C
:1053C000A02080F31188BFF34F8FBFF36F8F00BF12
:1053D00000BFFEE774B37848006884422AD0FEF725
:1053E00013FA2046FFF7BFFF10B3201DFDF7E4FFBF
:1053F00094F82C10012088406B49096808436A49D9
:105400000860E16A01EB8101664A02EB8100211D1F
:10541000FDF7ACFF6849E06A0968C96A884207D3AA
:105420004FF0805061490860BFF34F8FBFF36F8F1B
:10543000FEF711FA70BD2DE9F0410646002734460B
:1054400056B900BFA02080F31188BFF34F8FBFF380
:105450006F8F00BF00BFFEE7FEF731FA00BFA0214B
:10546000EFF3118081F31188BFF34F8FBFF36F8F7C
:1054700000BF05462046FFF776FF20B34C48006882
:10548000E0B94D49E06A0968C96A884200D301273A
:10549000201DFDF791FF94F82C100120884042490F
:1054A0000968084340490860E16A01EB81013D4A0F
:1054B00002EB8100211DFDF759FF04E004F1180102
:1054C0004148FDF753FF00BF85F3118800BF384600
:1054D000BDE8F08110B516E0FEF796F93B48C068CC
:1054E000C468201DFDF768FF36480068401E354936
:1054F000086037480068401E35490860FEF7ABF980
:105500002046FFF723FB324800680028E4D110BD95
:1055100000BFFFF7DFFF234800680128F9D94FF0EB
:10552000805022490860BFF34F8FBFF36F8FF0E7C1
:105530001CB5284800210B468222CDE9001026A187
:105540002748FFF7BEFA0446012C02D100F049FFBC
:105550000446012C15D100BFA02080F31188BFF3B1
:105560004F8FBFF36F8F00BF4FF0FF301D490860B2
:1055700001201349086000201B490860FEF7BDF8B0
:1055800035E0601C08B1012000E0002070BB00BFC6
:10559000A02080F31188BFF34F8FBFF36F8F00BF40
:1055A00000BFFEE7101100208800002004ED00E09D
:1055B000A80000209400002070000020C4110020EA
:1055C0008C000020800000209C110020B0110020E1
:1055D0007C000020A400002049444C45000000004D
:1055E00011550008A000002084000020FFE71CBD2A
:1055F00010B500BFA02080F31188BFF34F8FBFF319
:105600006F8F00BF0020FC490860FEF7E8F810BD6E
:10561000FA490868704770B5FEF751F90025F74858
:105620000468204670BDF64800687047014611B90D
:10563000F448006800E00846024652B900BFA020C6
:1056400080F31188BFF34F8FBFF36F8F00BF00BF90
:10565000FEE702F13400704770B504460D4654B9B8
:1056600000BFA02080F31188BFF34F8FBFF36F8F6F
:1056700000BF00BFFEE7E348016818312046FDF790
:1056800081FE01212846FFF7F2FB70BD70B504468C
:105690000D46164654B900BFA02080F31188BFF311
:1056A0004F8FBFF36F8F00BF00BFFEE7D648006883
:1056B00008B1012000E0002050B900BFA02080F315
:1056C0001188BFF34F8FBFF36F8F00BF00BFFEE79E
:1056D00045F00040CB4909688861CA480168183123
:1056E0002046FDF743FE01213046FFF7C0FB70BDA9
:1056F00070B505460E46144655B900BFA02080F38C
:105700001188BFF34F8FBFF36F8F00BF00BFFEE75D
:10571000BC48016818312846FDF728FE0CB14FF04F
:10572000FF3621463046FFF7A2FB70BD70B5064636
:10573000F068C46854B900BFA02080F31188BFF39B
:105740004F8FBFF36F8F00BF00BFFEE704F118005B
:10575000FDF732FEAC480068A8B9201DFDF72CFE0D
:1057600094F82C1001208840A84909680843A749EB
:105770000860E16A01EB8101A54A02EB8100211D6D
:10578000FDF7F4FD04E004F11801A248FDF7EEFD79
:105790009C49E06A0968C96A884204D90125012048
:1057A0009D49086000E00025284670BD70B505469B
:1057B0000E469548006808B1012000E0002050B96D
:1057C00000BFA02080F31188BFF34F8FBFF36F8F0E
:1057D00000BF00BFFEE746F000402860EC6854B907
:1057E00000BFA02080F31188BFF34F8FBFF36F8FEE
:1057F00000BF00BFFEE72846FDF7DEFD201DFDF7D8
:10580000DBFD94F82C10012088408049096808438A
:105810007E490860E16A01EB81017D4A02EB81006B
:10582000211DFDF7A3FD7749E06A0968C96A88422E
:1058300002D901207849086070BD10B5044654B9FA
:1058400000BFA02080F31188BFF34F8FBFF36F8F8D
:1058500000BF00BFFEE7FDF7D7FF7048006820607B
:10586000664800686060FDF7F6FF10BD6B49096887
:105870000160624909684160704770B505460C4691
:1058800055B900BFA02080F31188BFF34F8FBFF33D
:105890006F8F00BF00BFFEE754B900BFA02080F3A8
:1058A0001188BFF34F8FBFF36F8F00BF00BFFEE7BC
:1058B000FDF7AAFF514802686868131A2068401C67
:1058C00008B9002617E0554928680968884204D0BD
:1058D0006868904201D801260DE02068984207D9F7
:1058E0002068C01A20602846FFF7C0FF002602E0AB
:1058F000002020600126FDF7AEFF304670BD01207C
:105900004549086070473F49086870473A49096847
:1059100009B9012005E03C49096809B9022000E005
:105920000020704770B505462C460026002D54D047
:105930003449E06A0968C96A884247D2A06900F020
:10594000004028B92F480068C06AC0F10500A06176
:10595000E16A01EB81012E4A02EB81016069884214
:1059600001D1012000E0002050B3201DFDF724FDEF
:1059700078B9E06A00EB8000254951F8200040B971
:1059800094F82C10012088402049096881431F4861
:1059900001601C480068C06AE06294F82C10012085
:1059A00088401A490968084318490860E16A01EB10
:1059B0008101174A02EB8100211DFDF7D7FC03E0AE
:1059C00010480068C06AE062012606E00D49206CBC
:1059D0000968C96A884200D20126304670BD70B598
:1059E00005462C460026002D6AD0064800688442F1
:1059F00016D1012015E000008C000020840000205A
:105A00008000002070000020A800002088000020F6
:105A1000101100209C11002094000020980000200C
:105A2000002050B900BFA02080F31188BFF34F8F32
:105A3000BFF36F8F00BF00BFFEE7606C50B900BFBF
:105A4000A02080F31188BFF34F8FBFF36F8F00BF8B
:105A500000BFFEE7606C401E6064216CE06A884213
:105A60002ED0606C60BB201DFDF7A6FC78B9E06A03
:105A700000EB8000F74951F8200040B994F82C1051
:105A800001208840F44909688143F3480160206C93
:105A9000E062E06AC0F10500A06194F82C100120DA
:105AA0008840ED4909680843EB490860E16A01EB69
:105AB0008101E84A02EB8100211DFDF757FC012618
:105AC000304670BD2DE9F04706460F4634464FF08C
:105AD0000109002E67D0606C50B900BFA02080F390
